:100000000EC04BC227C026C021C224C023C022C0BC
:1000100021C020C01FC01EC01DC01CC01BC0112499
:100020001FBECFE5D1E0DEBFCDBF10E0A0E6B0E05F
:10003000E4ECF7E002C005900D92AC36B107D9F7B9
:1000400010E0ACE6B0E001C01D92A237B107E1F7C5
:1000500011D0B6C3D5CFCF93DF93EC0105C08ED1BD
:100060008FE090E06ED3219688818823C1F7DF91DD
:10007000CF9108954F925F926F927F928F929F924D
:10008000AF92BF92CF92DF92EF92FF920F931F93A6
:10009000DF93CF9300D00F92CDB7DEB71A8280E006
:1000A0001DD3C598BD9AE2D0C3D1789484E893E07B
:1000B00048D383E090E045D3D8D18823D1F300E042
:1000C00010E01B82662463947E010894E11CF11CFD
:1000D000E2E15E2E73E0472E6DE3962E54E5852E09
:1000E00046E4742E3BE5D32E25E4C22E99E5B92EC5
:1000F00082E5A82E3BD380E001D3882339F48A819E
:10010000882321F486E63AD1C59A6A8280E0F6D245
:10011000882349F08A81882331F080EF2FD186E649
:100120002DD1C5981A82A1D1882321F381E0A0D1D5
:10013000C7017ED2882309F493C08981883509F4E8
:100140005EC0893588F48633E9F1873338F482312B
:1001500009F452C08E3109F080C02FC08E33B9F13E
:10016000863409F07AC03CC08A3A89F08B3A38F478
:10017000893509F443C0833809F06FC039C0803E27
:1001800009F440C0803F09F068C011E067C080E614
:1001900090E061DF88EE93E0D4D282E690E05BDF0E
:1001A0008FE090E0CED285E690E055DF8FE090E0E2
:1001B000C8D287E690E04FDF57C0013009F04DC04C
:1001C000A9824BC0013009F048C0998246C0013075
:1001D00009F479828B81813009F03FC089823DC06A
:1001E000013009F4C9828B818130B9F5D98235C0DB
:1001F00080EEC4D0498231C0B98201C05982113029
:1002000059F528C080E034D130D18823E9F381E06A
:100210002FD1C7010DD28981803F51F480E028D1D0
:1002200024D18823E9F381E023D1C70101D211E071
:100230008981813129F41130B1F081E08B8314C0C0
:1002400080EE9CD0113011F480EF98D08FE090E0D8
:1002500078D203C000E001C001E010E089818ED0B7
:1002600080E006D147CF1B8210E0FACF84E036D27F
:1002700083E034D208951F9384E040D2182F83E0A6
:100280003DD281111260812F1F9108950F931F930A
:10029000182F8FE090E063D283E030D2082F8FE0F8
:1002A00090E05DD284E0FCD1112311F083E0F8D11D
:1002B00086E290E054D284E011D2112329F08AE042
:1002C00090E04DD283E00AD2802F1F910F910895C4
:1002D000BF92CF92DF92EF92FF920F931F93CF9333
:1002E000DF936C01F89480E0D1DFB82E00E0C0E02D
:1002F000D0E081E0E82EF12C80E0C8DF882341F0D7
:10030000C7010C2E02C0880F991F0A94E2F7082B30
:100310002196C830D10581F780E0B8DF182F81E041
:10032000B5DF7894802F00D2181711F480E002C056
:1003300081E08B25F6010083DF91CF911F910F9112
:10034000FF90EF90DF90CF90BF9008951F93182FEC
:100350008FE090E004D2112319F083E0BFD102C0F6
:1003600083E09ED18FE090E0FAD184E099D186E2DB
:1003700090E0F5D184E0B2D11F910895EF92FF9201
:100380000F931F93CF93DF93F82ECED1E82E10E07A
:1003900072DF8330E1F71F5F1530D0F3F89480E00F
:1003A000D5DFC0E0D0E00F2D10E0C8010C2E02C058
:1003B000959587950A94E2F78170C8DF2196C83039
:1003C000D10599F781E08E25C1DF81E0BFDF789408
:1003D000F0926A00DF91CF911F910F91FF90EF9003
:1003E0000895EF92FF921F93DF93CF930F92CDB7B3
:1003F000DEB710E07E010894E11CF11C01C010E0A2
:100400003ADF8130E1F71F5F1430D0F3C70160DFBE
:10041000882331F481E090E094D18EEFAFDFF0CF0C
:1004200089810F90CF91DF911F91FF90EF900895F8
:1004300085B7826085BF8BB780648BBF89B78460C6
:1004400089BF109271001092700008951F920F9250
:100450000FB60F92112410BE10926E0010926D0014
:100460000F900FBE0F901F90189580916F00089508
:10047000982F80916E00882379F4992331F08BB7FF
:100480008F7B8BBF82E00CD1089580E48ABF8BB74D
:1004900080648BBF82E013D108951F920F920FB634
:1004A0000F9211242F933F934F935F936F937F93FA
:1004B0008F939F93AF93BF93EF93FF9380916E00C1
:1004C000882319F41FBC87E080BF80916D008823CA
:1004D000A9F180916E008930B8F480916E0021E01E
:1004E00030E002C0220F331F8A95E2F7809170003E
:1004F0009091710028233923232B19F081E0DFD05C
:1005000051C081E0CDD04EC081E0D9D080916E0045
:100510008A3009F047C010926D0010BE8FEF8093B3
:100520006E0081E0EBD08823E1F781E0E7D08823FB
:10053000C9F582E0E3D08823C1F334C080916F0015
:100540008823A9F581E0DAD04091700050917100C4
:10055000882361F020916E0081E090E002C0880F56
:10056000991F2A95E2F7482B592B0DC020916E0058
:1005700081E090E002C0880F991F2A95E2F78095EC
:1005800090954823592350937100409370008091B7
:100590006E008A3039F410BE81E080936F008FEFD7
:1005A00080936E0080916E008F5F80936E00FF914C
:1005B000EF91BF91AF919F918F917F916F915F91DB
:1005C0004F913F912F910F900FBE0F901F90189554
:1005D0001F93182F80916D008823E1F781E08ED062
:1005E000882321F482E08AD08823C1F381E040DFB0
:1005F00084E690E0B4D081E053D010937000812F56
:1006000093D02091700030917100882311F43160F3
:1006100001C03E7F309371002093700081E0809391
:100620006D001FBC8BE080BF80E022DF1F9108952A
:10063000CF93DF93EC0180916F00882301F18091CB
:1006400070009091710080FD17C092FF15C09695C3
:100650008795909371008093700066D090E0209110
:10066000710030E0217030708217930729F080917B
:100670007000888381E001C080E010926F00DF91FC
:10068000CF91089598B321E030E002C0220F331FCC
:100690008A95E2F7922B98BB87B3282B27BB089546
:1006A00097B321E030E002C0220F331F8A95E2F7B2
:1006B000922B97BB88B32095282328BB089597B326
:1006C00021E030E002C0220F331F8A95E2F7209527
:1006D000922397BB88B3282328BB089597B321E0C2
:1006E00030E002C0220F331F8A95E2F7822F8095F7
:1006F000892387BB88B3282B28BB0895382F27B3BD
:1007000081E090E0032E02C0880F991F0A94E2F75F
:100710008095822387BB86B390E002C0959587952C
:100720003A95E2F781700895082E82958025082E6B
:1007300086958695802590E001969695879581709F
:1007400008950AC026EE33E000000000000000001B
:1007500021503040C9F701970097A1F70895000094
:100760000000000000000197D1F708951F9383DD7A
:10077000823091F08330D1F0813001F580916B00AF
:10078000815080936B00882391F72BDE182F81E036
:100790006FDE812F1DDF12C080916C00882371F401
:1007A00081E066DE81E080936C0008C080916C007F
:1007B000882321F080E05CDE10926C001F91089588
:0407C000F894FFCFDB
:0C07C4004200F042006600F06600FE03F8
:00000001FF
